:10000000FFFFFF02102802103202107D02150202CB
:10001000150302152202152712152322021A69025E
:100020001B8C0216B60215F1300506200D03121CBA
:10003000712290018CE030E320E55830E010E54C6F
:1000400030E0047F4080027F0090102FEFF090019D
:100050008C7408F0E49001A7F090018CE030E01C73
:10006000900180E0B40215A3E0B40110900184E097
:10007000B4810990018C7401F0120DC8229004140F
:10008000E020E703021501907012E0F55690040499
:10009000E0120A9D10E73110CB3611105011475174
:1000A00011505211505311505411915511E05612E4
:1000B0003E70126971129772134B73137074146748
:1000C00080148A9014BF9100001501907011E0F522
:1000D0003CE4907013F09004147480F0E556F470D2
:1000E000030215010214FA20020330031D7D02AF42
:1000F00056120B919004147480F0E4907013F0E5A4
:1001000056F470030215010214FA855641D20222F8
:10011000907010E0547FFFBF0A0D907011E0B4089A
:1001200006754E01754F84907010E0547FFFBF023A
:1001300012907011E064086004E0B42006754E036C
:10014000754F20E4F52722907011E024FF9247229A
:10015000900404E025E0245DF557907010E0FF74F2
:10016000472557F8C6EFC6907011E0FF7448255731
:10017000F8C6EFC6E4FDAF56120B919004147480DC
:10018000F0E4907013F0E556F470030215010214C8
:10019000FAE5476407601DE54764086017E54764B2
:1001A000096011E547640A600BE547640B6005E5EB
:1001B00047B40C08907011E0540FF53AE547B409C4
:1001C00008E53AB40303E4F546E547B40A08E53A1E
:1001D000B40103E4F546E4FDAF56120B91D20422BC
:1001E000907011E0F4FF907010E05FFF907011E0EC
:1001F00055274F907018F0907011E0907019F0E44E
:10020000FDAF56120B91301504D214802690701851
:10021000E0F527900229E0FF907019E0FEEF5E9074
:100220000229F0304704AF278004E527F4FF90024D
:1002300028EFF0E556F470030215010214FA9070ED
:1002400010E0FE907011E0FDEDF8E6F557FDAF56B9
:10025000120B919004147480F0E4907013F0E55642
:10026000F470030215010214FA907010E0FE907011
:1002700011E0FDEDF5828E83E0F557FDAF56120BD0
:10028000919004147480F0E4907013F0E556F470CB
:10029000030215010214FA901000E0F557E4F55836
:1002A000F559901003E0B42805755801803C901072
:1002B00003E0B430057558028030901003E0B43389
:1002C000057558048024901003E0B4350C9010029A
:1002D000E0B472057558088011901003E0B4350A37
:1002E000901002E0B49303755810E55830E119906E
:1002F0000508E04401F0FD900505E054FBF04404DE
:10030000F0ED54FE900508F0E4F54EF54F753AFF18
:10031000753CFFAD57AF56120B919070347431F0AD
:10032000A37426F0C216E4F55CF55AF55B907030C4
:10033000F0A3F0C2179004147480F0E4907013F0EE
:10034000E556F470030215010214FA907010E024CF
:10035000FF9293E4FDAF56120B919004147480F059
:10036000E4907013F0E556F470030215010214FADC
:10037000901000E090102CF090102F7440F09070CE
:1003800011E0547FF557E05480907032F090701077
:10039000E0FFE557D39F4042907033E557F09070EF
:1003A00010E0FF907033E0D39F4071E0FF90703217
:1003B000E04F900500F0E558540F60047F1780026D
:1003C0007F11900501EFF0A37401F07403F0FF12A8
:1003D0000DBA907033E014F080C4907033E557F09C
:1003E000907010E0FF907033E0C39F502FE0FF90BB
:1003F0007032E04F900500F0E558540F60047F170D
:1004000080027F11900501EFF0A37401F07403F0F6
:10041000FF120DBA907033E004F080C4907010E0C9
:10042000FF907032E04F900500F0E558540F6004E3
:100430007F1780027F11900501EFF0A37401F07423
:1004400003F0FF120DBA901000E090102CF0901005
:100450002F747FF0E4FDAF56120B9190041474805A
:10046000F0E4907013F022907010E024FF924AD2D2
:1004700005AD57AF56120B919004147480F0E490C0
:100480007013F0E556F460798070907010E024FFEE
:100490009216907011E0F55CAD57AF56120B91902B
:1004A00004147480F0907030E55AF0A3E55BF0E43A
:1004B000F55AF55B907013F0E556F46044803B907C
:1004C0007011E024FF9217907010E0F55DAD57AF0A
:1004D00056120B919004147480F030171390100092
:1004E000E090102CF090102FE054F0F557455DF09F
:1004F000E4907013F0E556F46007907025E0440135
:10050000F02222E553701A306009B24D304D0405D7
:1005100046C204E54F454E6008E54F154F70021581
:100520004E2222C242D322301430907019E0552757
:10053000FF907018E04FF527900229E0FF907019A6
:10054000E0FEEF5E900229F0304704AF278004E51B
:1005500027F4FF900228EFF0C214301660C2AF906B
:100560001004E0F557900228E05405F557E55C6467
:10057000017021E55790100430E006E054FBF08054
:1005800004E04404F0E55730E231055BE55B702B95
:10059000055A8027E55730E01BE55C901004700693
:1005A000E054FBF08004E04404F0055BE55B700B75
:1005B000055A8007901004E04404F0D2AF22901056
:1005C0001CEDF0A3EFF0A3740AF090101CE0F558B6
:1005D00090101EE020E1F32290101DEFF0A3740BA9
:1005E000F090101CE0F55890101EE020E1F3AF5899
:1005F00022C24BC24CE544120A9D16130016A104F8
:10060000169D08167D101627201647601658A00064
:100610000016A3854843854A42854C5EE54764063B
:1006200060030216A3801BE548C4540FF543E54A56
:10063000C4540FF542E54CC4540FF55EE54764061B
:10064000706153430F805C854943854B42854D5E05
:10065000E5476406704D801BE549C4540FF543E53A
:100660004BC4540FF542E54DC4540FF55EE54764A5
:10067000067030E543540F4410F5438026E5476487
:10068000046005E547B40506435E04754209E54785
:10069000B40610E543540F4430F5438006D24B8036
:1006A00002D24CE4F525E542C454F0FFE543540F73
:1006B0004FF55FD26022D215E54724F5600B24CBBD
:1006C000600724407006C21522121A341216D8C2CE
:1006D00015C2AFC204D2AF22C2AF900414E0540ED0
:1006E0006004D2188008E54E454F24FF9218D2AF1F
:1006F000900414E0A2E49219741EF0E55F540FF523
:100700002DE5257013301805E55F20E50B3019192C
:10071000E55F5430FFBF3011E525700575250C806D
:10072000021525D26CD26D800FE55F30E606C26CF3
:10073000D26D8004D26CC26DE54764037021304BEA
:1007400006C26CD26D8018E5257003304C11C24C86
:10075000E525700575250780021525D26CD26DE55B
:1007600047B40914E54420E30BE53A64026005E56B
:100770003AB40304C26CD26DE547B40A13E53AB447
:100780000106C26CD26D8008E53A7004D26CC26D6D
:10079000206907E55E20E002B268206B07E55E2075
:1007A000E102B26A206D07E55E20E202B26C752EAE
:1007B00040206904A2688026306806E546A2E280EF
:1007C0001DE55E20E0047F0180027F00E54654F0D5
:1007D000FEBEF0047E0180027E00EE6F24FF927365
:1007E0009272206B04A26A8026306A06E546A2E275
:1007F000801DE55E20E1047F0180027F00E5465414
:10080000F0FEBEF0047E0180027E00EE6F24FF92B7
:10081000759274206D04A26C8026E547640A7022EC
:10082000306C06E546A2E38017E53AB40106E546DA
:10083000A2E38034E54620E40330E503D38001C31E
:100840008026306C06E546A2E2801DE55E20E204CB
:100850007F0180027F00E54654F0FEBEF0047E0179
:1008600080027E00EE6F24FF92719270901000E083
:1008700090102CF0901003E0C394304019E06432E3
:100880006014A2719277A2709276E52E1313543FF2
:10089000F52EC277D27630170D532EF0E52E455D3A
:1008A00090102FF0800690102FE52EF0E54764069B
:1008B0007047900228E0304703FF8002F4FF8F2743
:1008C000900229E054FEF0E543C4540F14600C2458
:1008D000FE600C24037013C238800FD238800BE501
:1008E0004630E203D38001C39238304705AF270278
:1008F0001A2EE527F4FF021A2EE5476407600FE57C
:100900004764086009E5476409600302199C900286
:1009100028E0304703FF8002F4FF8F27900229E090
:1009200054FCF0E53A14602214602514602D24FC78
:10093000604924F96014240E7050E5461313543FA7
:1009400075F00384E5F024FF803AD239C238803E46
:10095000E54630E203D3801DC3801AE54630E20D40
:100960005438C3943050067E007F0180047E007F9F
:1009700000EE4F24FF9238C2398013E54630E2037F
:10098000D38001C39239C2388004C238C23930479B
:1009900004AF278004E527F4FF021A2EE547640C14
:1009A0006009E547640B6003021A33900228E030C7
:1009B0004703FF8002F4FF8F27900229E054FDF0E7
:1009C000E53A14602014602114602B24FC60452457
:1009D000F96012240E704AE5461313543F75F00374
:1009E00084E5F08029D239803AE54630E203D380AD
:1009F00001C39239802DE54630E20D5438C394305E
:100A000050067E007F0180047E007F00EE4F24FFB1
:100A10009239800FE54630E203D38001C3923980DA
:100A200002C239304704AF278004E527F4FF900263
:100A300028EFF022E547B40B10900229E054EBF0C8
:100A4000E52754EB4545F52722E4900229F030478D
:100A500004AF458004E545F4FF900228EFF0228FB3
:100A600050D259228F54D25822E4F562C2AFE551D8
:100A700014604814606624026003021B70D259752A
:100A800055019002A2E0547FF0A3E020E7239004F8
:100A900034E0B4021CA3E0B40217A3E0B402127F56
:100AA00020121A5F901004E054F3F0755101021BFC
:100AB00070E5507006756203021B70901200E054DE
:100AC0000370127F20121A5F9002A2E054BFF075EB
:100AD0005102021B70E5507003021B6B9002A3E0F1
:100AE00030E603021B67900437E0642270799001BE
:100AF0008A747EF0900196F0901204740AF09013BC
:100B000028E090701AF0901329E090701BF0901379
:100B10002BE0907022F0901328E054F0F0A3E05402
:100B2000F0F090132BE054CCF0E55830E313E53CA3
:100B3000F490132A6005E054F38011E054FBF08038
:100B400014E53CF490132A6008E054F2453CF08030
:100B500004E054FAF0900401E054FDF07562017570
:100B60005502E4F5518009E5507005756203F551B1
:100B7000E5626015C201E4F551C259AD62AF4012A1
:100B80001C3DE562B40302D203D2AF22C2AF3001F2
:100B900012E4900196F0F551C259C2017D02AF40B6
:100BA000121C3DE55214600C046003021C3A75529D
:100BB00001755503900401E0440EF0E558541860A7
:100BC0001E90701AE0901328F090701BE09013298B
:100BD000F0A37405F0907022E090132BF080119038
:100BE0001328E0440FF0A3E0440FF0A3E04405F025
:100BF0009012047403F0E55830E31690050074E297
:100C0000F0A37408F0A37401F07403F07F01120DD7
:100C10002A9002A2E044C0F0901004E0440CF0E4FA
:100C2000F552F555300209C2027D01AF41121C3D5B
:100C3000300302C203E4900196F0D2AF22EFF460D9
:100C40002DE4FE74142EF582E43470F583E0B4FFD5
:100C50001974142EF582E43470F583EFF0741C2EB1
:100C6000F582E43470F583EDF0220EBE04D5222225
:100C70002290702AE030E14DC2AF907028E09010D1
:100C80001CF0907029E090101DF090702AE09010F8
:100C90001EF090101CE0F56290101EE020E1F39031
:100CA000101CE0907028F090101DE0907029F090DA
:100CB000101EE090702AF0304A07907024E0440142
:100CC000F0C205D2AF222222000000000000000086
:100CD0000000000000000000000000000000000014
:100CE0000000000000000000000000000000000004
:100CF00000000000000000000000000000000000F4
:100D000000000000000000000000000000000000E3
:100FF000000000000000000000000000001DC238DA
:10100000FFFFFF02102802103202107D021533028A
:10101000153402160102160612160222021B48029D
:101020001C6B0217950216D0300506200D03121D09
:10103000502290018CE030E320E55830E010E54C80
:1010400030E0047F4080027F0090102FEFF090018D
:101050008C7408F0E49001A7F090018CE030E01C63
:10106000900180E0B40215A3E0B40110900184E087
:10107000B4810990018C7401F0120DDD22900414EA
:10108000E020E703021532907012E0F55690040458
:10109000E0120AB610EA3110CE36111350114A513F
:1010A00011535211535311535411945511E35612C5
:1010B0004164126D7012987112C672137C7313A181
:1010C0007414988014BB9014F09100001532907045
:1010D00011E0F53CE4907013F09004147480F0E596
:1010E00056F4700302153202152B20020330031D43
:1010F0007D02AF56120BAA9004147480F0E4907035
:1011000013F0E556F4700302153202152B85564193
:10111000D20222907010E0547FFFBF0A0D90701130
:10112000E0B40806754E01754F84907010E0547F4E
:10113000FFBF0212907011E064086004E0B4200662
:10114000754E03754F20E4F52722907011E024FFBF
:10115000924722900404E025E0245DF5579070103A
:10116000E0FF74472557F8C6EFC6907011E0FF7492
:10117000482557F8C6EFC6E4FDAF56120BAA9004F7
:10118000147480F0E4907013F0E556F470030215C7
:101190003202152BE5476407601DE54764086017B8
:1011A000E54764096011E547640A600BE547640B95
:1011B0006005E547B40C08907011E0540FF53AE56E
:1011C00047B40908E53AB40303E4F546E547B40A31
:1011D00008E53AB40103E4F546E4FDAF56120BAA64
:1011E000D20422907011E0F4FF907010E05FFF9045
:1011F0007011E055274F907018F0907011E09070CA
:1012000019F0E4FDAF56120BAA301504D214802653
:10121000907018E0F527900229E0FF907019E0FE29
:10122000EF5E900229F0304704AF278004E527F4F1
:10123000FF900228EFF0E556F47003021532021514
:101240002B907010E0F52A753D03753E1FE4F52FD5
:10125000AD57AF56120BAA9004147480F0E490704E
:1012600013F0E556F4700302153202152B9070103E
:10127000E0FE907011E0FDEDF8E6F557FDAF561277
:101280000BAA9004147480F0E4907013F0E556F407
:10129000700302153202152B907010E0FE90701151
:1012A000E0FDEDF5828E83E0F557FDAF56120BAAF7
:1012B0009004147480F0E4907013F0E556F4700319
:1012C00002153202152B901000E0F557E4F558F5A1
:1012D00059901003E0B42805755801803C90100324
:1012E000E0B430057558028030901003E0B4330547
:1012F0007558048024901003E0B4350C901002E07F
:10130000B472057558088011901003E0B4350A9046
:101310001002E0B49303755810E55830E1199005B8
:1013200008E04401F0FD900505E054FBF04404F0B2
:10133000ED54FE900508F0E4F54EF54F753AFF7553
:101340003CFFAD57AF56120BAA9070347431F0A326
:101350007426F0C216E4F55CF55AF55B907030F037
:10136000A3F0F52AC2179004147480F0E49070136F
:10137000F0E556F4700302153202152B907010E060
:1013800024FF9293E4FDAF56120BAA9004147480CC
:10139000F0E4907013F0E556F47003021532021574
:1013A0002B901000E090102CF090102F7440F090D3
:1013B0007011E0547FF557E05480907032F09070D7
:1013C00010E0FFE557D39F4042907033E557F0900F
:1013D0007010E0FF907033E0D39F4071E0FF907099
:1013E00032E04F900500F0E558540F60047F1780FD
:1013F000027F11900501EFF0A37401F07403F0FF78
:10140000120DCF907033E014F080C4907033E55724
:10141000F0907010E0FF907033E0C39F502FE0FF1A
:10142000907032E04F900500F0E558540F60047F53
:101430001780027F11900501EFF0A37401F074038F
:10144000F0FF120DCF907033E004F080C490701064
:10145000E0FF907032E04F900500F0E558540F60C7
:10146000047F1780027F11900501EFF0A37401F053
:101470007403F0FF120DCF901000E090102CF0904C
:10148000102F747FF0E4FDAF56120BAA9004147471
:1014900080F0E4907013F022907010E024FF924AE4
:1014A000D205AD57AF56120BAA9004147480F0E425
:1014B000907013F0E556F460798070907010E0241D
:1014C000FF9216907011E0F55CAD57AF56120BAA63
:1014D0009004147480F0907030E55AF0A3E55BF04E
:1014E000E4F55AF55B907013F0E556F46044803BE8
:1014F000907011E024FF9217907010E0F55DAD57E9
:10150000AF56120BAA9004147480F0301713901089
:1015100000E090102CF090102FE054F0F557455D4E
:10152000F0E4907013F0E556F46007907025E04405
:1015300001F02222E53E453D600AE53E153E700A77
:10154000153D8006753D03753E1FE53E453D600334
:101550000215E2E52A70030215E274A0252FF58238
:10156000E4344CF583E0607A7F7E1216B7EF54FEC8
:101570004402FD7F7E12169DE52F7F0025E0FEEFE1
:101580002400F582744D3EAF82904CA8F0A3EFF09A
:10159000E4F556F5577F7F1216B7904CA8E0FAA3F2
:1015A000E02557F582EA3556F583EFF00557E55704
:1015B00070020556C39480E556940140D87F7E1290
:1015C00016B7EF4403FD7F7E12169D74A0252FF5FC
:1015D00082E4344CF583E4F0052FE52FB40803E4EE
:1015E000F52FE553701A306009B24D304D040546B1
:1015F000C204E54F454E6008E54F154F7002154E89
:101600002222C242D322301430907019E05527FFB5
:10161000907018E04FF527900229E0FF907019E0D4
:10162000FEEF5E900229F0304704AF278004E527E3
:10163000F4FF900228EFF0C214301660C2AF901091
:1016400004E0F557900228E05405F557E55C640185
:101650007021E55790100430E006E054FBF0800460
:10166000E04404F0E55730E231055BE55B702B05A3
:101670005A8027E55730E01BE55C9010047006E0C7
:1016800054FBF08004E04404F0055BE55B700B055F
:101690005A8007901004E04404F0D2AF2290101C4E
:1016A000EDF0A3EFF0A3740AF090101CE0F5589051
:1016B000101EE020E1F32290101DEFF0A3740BF058
:1016C00090101CE0F55890101EE020E1F3AF582276
:1016D000C24BC24CE544120AB616F200178004173A
:1016E0007C08175C101706201726601737A000002B
:1016F0001782854843854A42854C5EE5476406600B
:1017000003021782801BE548C4540FF543E54AC421
:10171000540FF542E54CC4540FF55EE5476406707E
:101720006153430F805C854943854B42854D5EE59F
:10173000476406704D801BE549C4540FF543E54BE3
:10174000C4540FF542E54DC4540FF55EE5476406F9
:101750007030E543540F4410F5438026E547640498
:101760006005E547B40506435E04754209E547B4E4
:101770000610E543540F4430F5438006D24B8002F7
:10178000D24CE4F525E542C454F0FFE543540F4F35
:10179000F55FD26022D215E54724F5600B24CB60BB
:1017A0000724407006C21522121B131217B7C21568
:1017B000C2AFC204D2AF22C2AF900414E0540E6094
:1017C00004D2188008E54E454F24FF9218D2AF90FE
:1017D0000414E0A2E49219741EF0E55F540FF52D95
:1017E000E5257013301805E55F20E50B301919E584
:1017F0005F5430FFBF3011E525700575250C800260
:101800001525D26CD26D800FE55F30E606C26CD232
:101810006D8004D26CC26DE54764037021304B06C5
:10182000C26CD26D8018E5257003304C11C24CE5B6
:1018300025700575250780021525D26CD26DE54708
:10184000B40914E54420E30BE53A64026005E53A87
:10185000B40304C26CD26DE547B40A13E53AB4018F
:1018600006C26CD26D8008E53A7004D26CC26D205D
:101870006907E55E20E002B268206B07E55E20E1C3
:1018800002B26A206D07E55E20E202B26C752E405E
:10189000206904A2688026306806E546A2E2801D21
:1018A000E55E20E0047F0180027F00E54654F0FE03
:1018B000BEF0047E0180027E00EE6F24FF927392E0
:1018C00072206B04A26A8026306A06E546A2E28096
:1018D0001DE55E20E1047F0180027F00E54654F0B3
:1018E000FEBEF0047E0180027E00EE6F24FF927542
:1018F0009274206D04A26C8026E547640A70223041
:101900006C06E546A2E38017E53AB40106E546A277
:10191000E38034E54620E40330E503D38001C3804F
:1019200026306C06E546A2E2801DE55E20E2047FDB
:101930000180027F00E54654F0FEBEF0047E018087
:10194000027E00EE6F24FF92719270901000E09082
:10195000102CF0901003E0C394304019E064326022
:1019600014A2719277A2709276E52E1313543FF56C
:101970002EC277D27630170D532EF0E52E455D90AE
:10198000102FF0800690102FE52EF0E547640670CA
:1019900047900228E0304703FF8002F4FF8F279032
:1019A0000229E054FEF0E543C4540F14600C24FEF9
:1019B000600C24037013C238800FD238800BE546C8
:1019C00030E203D38001C39238304705AF27021BB2
:1019D0000DE527F4FF021B0DE5476407600FE5479F
:1019E00064086009E54764096003021A7B900228D5
:1019F000E0304703FF8002F4FF8F27900229E05474
:101A0000FCF0E53A14602214602514602D24FC607B
:101A10004924F96014240E7050E5461313543F75A1
:101A2000F00384E5F024FF803AD239C238803EE5E5
:101A30004630E203D3801DC3801AE54630E20D54E0
:101A400038C3943050067E007F0180047E007F0002
:101A5000EE4F24FF9238C2398013E54630E203D3BB
:101A60008001C39239C2388004C238C23930470479
:101A7000AF278004E527F4FF021B0DE547640C60E7
:101A800009E547640B6003021B12900228E030470F
:101A900003FF8002F4FF8F27900229E054FDF0E558
:101AA0003A14602014602114602B24FC604524F952
:101AB0006012240E704AE5461313543F75F00384F8
:101AC000E5F08029D239803AE54630E203D380013F
:101AD000C39239802DE54630E20D5438C39430501E
:101AE000067E007F0180047E007F00EE4F24FF927F
:101AF00039800FE54630E203D38001C3923980027A
:101B0000C239304704AF278004E527F4FF9002284C
:101B1000EFF022E547B40B10900229E054EBF0E51A
:101B20002754EB4545F52722E4900229F03047047D
:101B3000AF458004E545F4FF900228EFF0228F5076
:101B4000D259228F54D25822E4F562C2AFE5511423
:101B5000604814606624026003021C4FD259755518
:101B6000019002A2E0547FF0A3E020E72390043428
:101B7000E0B4021CA3E0B40217A3E0B402127F2079
:101B8000121B3E901004E054F3F0755101021C4FFB
:101B9000E5507006756203021C4F901200E054037A
:101BA00070127F20121B3E9002A2E054BFF07551CC
:101BB00002021C4FE5507003021C4A9002A3E03061
:101BC000E603021C46900437E06422707990018A93
:101BD000747EF0900196F0901204740AF09013282D
:101BE000E090701AF0901329E090701BF090132B86
:101BF000E0907022F0901328E054F0F0A3E054F04D
:101C0000F090132BE054CCF0E55830E313E53CF4AE
:101C100090132A6005E054F38011E054FBF0801427
:101C2000E53CF490132A6008E054F2453CF080044F
:101C3000E054FAF0900401E054FDF075620175552E
:101C400002E4F5518009E5507005756203F551E530
:101C5000626015C201E4F551C259AD62AF40121D78
:101C60001CE562B40302D203D2AF22C2AF3001122C
:101C7000E4900196F0F551C259C2017D02AF4012C5
:101C80001D1CE55214600C046003021D19755201FD
:101C9000755503900401E0440EF0E5585418601E99
:101CA00090701AE0901328F090701BE0901329F0C8
:101CB000A37405F0907022E090132BF08011901324
:101CC00028E0440FF0A3E0440FF0A3E04405F090B7
:101CD00012047403F0E55830E31690050074E2F046
:101CE000A37408F0A37401F07403F07F01120D488F
:101CF0009002A2E044C0F0901004E0440CF0E4F53F
:101D000052F555300209C2027D01AF41121D1C304F
:101D10000302C203E4900196F0D2AF22EFF4602DEB
:101D2000E4FE74142EF582E43470F583E0B4FF19F8
:101D300074142EF582E43470F583EFF0741C2EF5E4
:101D400082E43470F583EDF0220EBE04D522222207
:101D500090702AE030E14DC2AF907028E090101CE6
:101D6000F0907029E090101DF090702AE090101E05
:101D7000F090101CE0F56290101EE020E1F390104E
:101D80001CE0907028F090101DE0907029F09010E9
:101D90001EE090702AF0304A07907024E04401F071
:101DA000C205D2AF22222200000000000000000085
:101DB0000000000000000000000000000000000023
:101DC0000000000000000000000000000000000013
:101DD0000000000000000000000000000000000003
:101DE00000000000000000000000000000000000F3
:101FF000000000000000000000000000001D84C27E
:00000001FF
